:06005A00C2A67F017E003A
:10006000D3EF9400EE940040147D727C00ED1D707F
:0D007000011CED4C70F7EF1F70E61E80E3E1
:01007D002260
:10000300B2A3C2A67580FFD2A77580FEC2A7D2A6EF
:1000130075803F12005AC2A67580FFD2A77580FD76
:10002300C2A7D2A675800712005AC2A67580FFD256
:10003300A77580FBC2A7D2A675805B12005AC2A621
:100043007580FFD2A77580F7C2A7D2A67580061266
:07005300005A7580FF80A92F
:0300000002007E7D
:0C007E00787FE4F6D8FD758107020003CE
:00000001FF
