:1003F900FEFDFBF7EFDFBF7F3F065B4F666D7D07B5
:0E0409007F6F777C395E79717638373E400020
:10041700011014021100000808000000000000008D
:0104270000D4
:1003DB00D3EF9400EE940040147D727C00ED1D7001
:0D03EB00011CED4C70F7EF1F70E61E80E363
:0103F80022E2
:10022E0075B0F0E5B064F070030202CA7F0A7E007A
:10023E001203DBE5B064F070030202CAAFB0EF2424
:10024E0090601B24C0601224E0600924F07012E458
:10025E00F510800D75100180087510028003751061
:10026E000375B00FAFB0EF24F9601324FC600B24BC
:10027E00FE600314800E7404800674088002740CF1
:10028E002510F510AE11AF127C007D0A120003EF9F
:10029E002510F512EC3EF511FEAF12E4FD7BFF7A50
:1002AE00E079F57805C312006A5005E4F511F512F0
:1002BE00E5B0B40FFB7F0A7E001203DB75B0FF22A0
:10014E008E138F14E4FCFD7B807A967998F8120357
:10015E005A8F08AE13AF14E4FCFD7B807A96799823
:10016E00F812035AAC00AD01AE02AF037B407A42E7
:10017E00790F780012035A8F09AE13AF14E4FCFD09
:10018E007B407A42790FF812035AAC00AD01AE02F1
:10019E00AF037BA07A867901780012035A8F0AAEDC
:1001AE0013AF14E4FCFD7BA07A867901F812035A92
:1001BE00AC00AD01AE02AF03E47B107A27F9F81262
:1001CE00035A8F0BAE13AF147C277D101200157ED1
:1001DE00037FE8CFCDCFCECCCE1200158F0CAE1351
:1001EE00AF147C037DE81200157E007F64CFCDCF67
:1001FE00CECCCE1200158F0DAE13AF147C007D64E5
:10020E001200157E007F0ACFCDCFCECCCE120015B8
:10021E008F0EAE13AF147C007D0A1200158D0F22C7
:10039E00AF12AE1112014EE4FBD2A77580FFC2A7B9
:1003AE00D2A7EB9003F993F580C2A7D2A6E4F5800D
:1003BE00C2A6D2A674082BF8E690040193F580C26B
:0C03CE00A67F017E001203DB0BBB08CDF4
:0103DA002200
:0804290012022E12039E80F85E
:030000000202CE2B
:0C02CE00787FE4F6D8FD7581140203155A
:10000300EF8DF0A4A8F0CF8CF0A428CE8DF0A42E11
:02001300FE22CB
:10001500BC000BBE0029EF8DF084FFADF022E4CCCF
:10002500F875F008EF2FFFEE33FEEC33FCEE9DEC98
:10003500984005FCEE9DFE0FD5F0E9E4CEFD22EDDE
:10004500F8F5F0EE8420D21CFEADF075F008EF2F28
:10005500FFED33FD4007985006D5F0F222C398FD19
:050065000FD5F0EA22B6
:10035A00C2D5E830E70FB2D5E4C39BFBE49AFAE4CE
:10036A0099F9E498F8EC30E717B2D5120390120025
:10037A00BCE4C39BFBE49AFAE499F9E498F8800395
:10038A001200BC30D50DE4C39FFFE49EFEE49DFD40
:04039A00E49CFC22C1
:10006A00EB9FF5F0EA9E42F0E99D42F0EC6480C80D
:06007A0064809845F022AD
:1002DA00020429E493A3F8E493A34003F68001F20D
:1002EA0008DFF48029E493A3F85407240CC8C33325
:1002FA00C4540F4420C8834004F456800146F6DFF4
:10030A00E4800B0102040810204080900417E47E68
:10031A00019360BCA3FF543F30E509541FFEE493E8
:10032A00A360010ECF54C025E060A840B8E493A3AF
:10033A00FAE493A3F8E493A3C8C582C8CAC583CADA
:10034A00F0A3C8C582C8CAC583CADFE9DEE780BE92
:0104280000D3
:1000800075F008758200EF2FFFEE33FECD33CDCC37
:1000900033CCC58233C5829BED9AEC99E5829840BA
:1000A0000CF582EE9BFEED9AFDEC99FC0FD5F0D697
:1000B000E4CEFBE4CDFAE4CCF9A88222B800C1B9C1
:1000C0000059BA002DEC8BF084CFCECDFCE5F0CBFF
:1000D000F97818EF2FFFEE33FEED33FDEC33FCEB38
:1000E00033FB10D703994004EB99FB0FD8E5E4F9F3
:1000F000FA227818EF2FFFEE33FEED33FDEC33FCE0
:10010000C933C910D7059BE99A4007EC9BFCE99AD3
:10011000F90FD8E0E4C9FAE4CCFB2275F010EF2F18
:10012000FFEE33FEED33FDCC33CCC833C810D70718
:100130009BEC9AE899400AED9BFDEC9AFCE899F853
:0E0140000FD5F0DAE4CDFBE4CCFAE4C8F922E6
:00000001FF
