:0A00B0003F065B4F666D7D077F6F12
:10007A00D3EF9400EE940040147D727C00ED1D7065
:0D008A00011CED4C70F7EF1F70E61E80E3C7
:010097002246
:10000300EF75F06484E5F075F00A84FEEF75F00A8D
:1000130084ABF07580FFD2A77580FEC2A7D2A6AFCE
:1000230006EF9000B093F580C2A67F057E00120014
:100033007A7580FFD2A77580FDC2A7D2A6AF03EF62
:0C00430093F580C2A67F057E0002007AC3
:0C009800D28C758901758C4B758AFD2295
:10004F00120098308D14C28D758C4B758AFD050882
:10005F00E508B41405E4F5080509AF09120003E536
:0B006F0009D3941240DDE4F50980D8AD
:030000000200A457
:0C00A400787FE4F6D8FD75810902004F5A
:00000001FF
