:100336004C45445F6F6E004C45445F6F6E5F6F6B5C
:100346000D0A004C45445F6F6666004C45445F6F7E
:1003560066665F6F6B0A00756E6B6E6F776E0D0A61
:010366000096
:05037A00010800C100B4
:10000300D2AFD2ACD28ED29C438920758DFD758B35
:05001300FD759850226C
:080018008F993099FDC2992275
:10036700120026FF600C120018740129F9E43AFA0A
:0303770080EE22F3
:030023000202FDD9
:1002FD00C0E0C0D075D000C000309826C298E50887
:10030D00C3940F501A74092508F8A6997409250885
:10031D00F8E6B40D067600D200800405088003755A
:09032D000800D000D0D0D0E0326D
:10029200D2901200037E007F107D007B007A0079ED
:1002A200091201DA3000FDC20078097C007D007B72
:1002B200FF7A0379361201BDEF700AC2907BFF7A92
:1002C20003793D802278097C007D007BFF7A0379E7
:1002D200491201BDEF700AD2907BFF7A03795180F7
:1002E200067BFF7A03795D1203677E007F107D0033
:0B02F2007B007A0079091201DA80A974
:03000000020206F3
:0C020600787FE4F6D8FD75812002024DDF
:10002600BB010689828A83E0225002E722BBFE02D8
:09003600E32289828A83E493220B
:10003F00E3F5F009E208B5F06D606B80F3E3F5F0DE
:10004F0009E608B5F060605E80F387F009E608B551
:10005F00F054605280F487F009E208B5F04860462A
:10006F0080F488828C8387F009E0A3B5F03860367E
:10007F0080F488828C8387F009E493A3B5F027601E
:10008F002580F388828C83E3F5F009E0A3B5F016A1
:10009F00601480F388828C83E3F5F009E493A3B5B1
:1000AF00F004600280F202016A808580E7808E8012
:1000BF00D2803C8015806C807E809B80B5808B8049
:1000CF00A1804F8070803A02017689828A83ECFA90
:1000DF00E493F5F0A3C8C582C8CCC583CCE493A341
:1000EF00C8C582C8CCC583CCB5F070606E80E1897D
:1000FF00828A83E493F5F0A3E208B5F05E605C803A
:10010F00F289828A83E0F5F0A3E608B5F04D604BE3
:10011F0080F389828A83E0F5F0A3E208B5F03C60B2
:10012F003A80F389828A83E493F5F0A3E608B5F069
:10013F002A602880F2805389828A83ECFAE493F54F
:10014F00F0A3C8C582C8CCC583CCE0A3C8C582C8FC
:10015F00CCC583CCB5F004600280E27FFFB5F0021E
:10016F000F2240027F012289828A83ECFAE0F5F0A8
:10017F00A3C8C582C8CCC583CCE0A3C8C582C8CCF0
:10018F00C583CCB5F0D560D380E389828A83ECFA3E
:10019F00E0F5F0A3C8C582C8CCC583CCE493A3C84F
:1001AF00C582C8CCC583CCB5F0B160AF80E288F012
:1001BF00ED2402B4040050A3F582EB2402B4040032
:0B01CF00509923234582239000B87351
:1001DA00EF4E6012EF60010EEDBB010B89828A833C
:1001EA00F0A3DFFCDEFA2289F05007F709DFFCA949
:0C01FA00F022BBFEFCF309DFFCA9F022A0
:10021200020292E493A3F8E493A34003F68001F26E
:1002220008DFF48029E493A3F85407240CC8C333ED
:10023200C4540F4420C8834004F456800146F6DFBC
:10024200E4800B010204081020408090037AE47ECF
:10025200019360BCA3FF543F30E509541FFEE493B1
:10026200A360010ECF54C025E060A840B8E493A378
:10027200FAE493A3F8E493A3C8C582C8CAC583CAA3
:10028200F0A3C8C582C8CAC583CADFE9DEE780BE5B
:01037F00007D
:00000001FF
